:020000040800F2
:100000000050002039B000081DA900081FA90008F1
:1000100000000000000000000000000000000000E0
:1000200000000000000000000000000021A90008FE
:10003000000000000000000023A9000825A9000816
:1000400089B0000889B000086DAB000889B00008CD
:1000500089B0000889B0000889B0000885AB0008A5
:1000600089B00008B5AB000889B0000889B0000865
:10007000C5AB000889B0000889B0000889B0000845
:10008000D5AB0008E5AB000889B00008000000000F
:1000900089B0000889B0000889B0000889B000085C
:1000A00089B00008F5AB000889B0000805AC00086D
:1000B00089B0000815AC000889B0000889B00008B4
:1000C00010B5064C2378002B07D1054B002B02D02E
:1000D000044800E000BF0123237010BDC0010020D0
:1000E0000000000088C80008044B10B5002B03D0A6
:1000F0000349044800E000BF10BDC04600000000F6
:10010000C401002088C8000803B4714649084000B3
:100110004900095E49008E4403BC70470022430831
:100120008B4274D303098B425FD3030A8B4244D3BF
:10013000030B8B4228D3030C8B420DD3FF22090201
:1001400012BA030C8B4202D31212090265D0030BC0
:100150008B4219D300E0090AC30B8B4201D3CB03B6
:10016000C01A5241830B8B4201D38B03C01A5241F8
:10017000430B8B4201D34B03C01A5241030B8B42FA
:1001800001D30B03C01A5241C30A8B4201D3CB02E5
:10019000C01A5241830A8B4201D38B02C01A5241CA
:1001A000430A8B4201D34B02C01A5241030A8B42CD
:1001B00001D30B02C01A5241CDD2C3098B4201D3E5
:1001C000CB01C01A524183098B4201D38B01C01A63
:1001D000524143098B4201D34B01C01A52410309DA
:1001E0008B4201D30B01C01A5241C3088B4201D389
:1001F000CB00C01A524183088B4201D38B00C01A36
:10020000524143088B4201D34B00C01A5241411A5C
:1002100000D20146524110467047FFE701B5002069
:1002200000F0F0F802BDC0460029F7D076E770472D
:1002300003460B437FD4002243088B4274D3030947
:100240008B425FD3030A8B4244D3030B8B4228D3E8
:10025000030C8B420DD3FF22090212BA030C8B420E
:1002600002D31212090265D0030B8B4219D300E0AE
:10027000090AC30B8B4201D3CB03C01A5241830B33
:100280008B4201D38B03C01A5241430B8B4201D3E3
:100290004B03C01A5241030B8B4201D30B03C01A0C
:1002A0005241C30A8B4201D3CB02C01A5241830A86
:1002B0008B4201D38B02C01A5241430A8B4201D3B5
:1002C0004B02C01A5241030A8B4201D30B02C01ADF
:1002D0005241CDD2C3098B4201D3CB01C01A524146
:1002E00083098B4201D38B01C01A524143098B42CF
:1002F00001D34B01C01A524103098B4201D30B01B8
:10030000C01A5241C3088B4201D3CB00C01A5241DC
:1003100083088B4201D38B00C01A524143088B42A1
:1003200001D34B00C01A5241411A00D2014652413A
:10033000104670475DE0CA0F00D04942031000D359
:100340004042534000229C4603098B422DD3030AAE
:100350008B4212D3FC22890112BA030A8B420CD3BE
:10036000890192118B4208D3890192118B4204D3E7
:1003700089013AD0921100E08909C3098B4201D367
:10038000CB01C01A524183098B4201D38B01C01AA1
:10039000524143098B4201D34B01C01A5241030918
:1003A0008B4201D30B01C01A5241C3088B4201D3C7
:1003B000CB00C01A524183088B4201D38B00C01A74
:1003C0005241D9D243088B4201D34B00C01A52414B
:1003D000411A00D20146634652415B10104601D3D8
:1003E0004042002B00D54942704763465B1000D362
:1003F000404201B5002000F005F802BD0029F8D008
:1004000016E770477047C0468446101C62468C460B
:10041000191C634600E0C0461FB501F065F80028CE
:1004200001D40021C8421FBD10B500F0AFFF40420B
:10043000013010BD10B501F057F8002801DB002095
:1004400010BD012010BDC04610B501F04DF80028C8
:1004500001DD002010BD012010BDC04610B500F028
:10046000D1FF002801DC002010BD012010BDC046D6
:1004700010B500F0C7FF002801DA002010BD0120F0
:1004800010BDC046002B11D1002A0FD1002900D188
:10049000002802D00021C943081C07B4024802A169
:1004A0004018029003BDC0465DFFFFFF03B46846DD
:1004B00001B5029800F04CF8019B9E4602B00CBCBE
:1004C0007047C046F0B515042D0C0F0001002E003A
:1004D000C64684460004140C000C090C46434D43E8
:1004E000604361434019340C241800B5A54203D978
:1004F0008020400280464144250C6D1861465943D6
:100500007A43300449192404000C2018891880BC4F
:10051000B846F0BD70B500220C4B04000D00FFF78B
:10052000A7FF002804D12000290001F069FE70BD5A
:10053000064B00222000290001F0B2FA01F060FE13
:1005400080231B069C466044F1E7C0460000E04162
:10055000F0B557464E464546DE46E0B504000D0070
:100560009246994683B08B4230D82DD049465046AA
:1005700001F0F0FE29000600200001F0EBFE331A26
:100580009846203B9B4633D45A46534693404246B6
:100590001F00534693401E00AF423AD8AF4200D1ED
:1005A00078E05B46A41BBD41002B00DA75E0002219
:1005B00000230092019301235A46934001930123A3
:1005C00042469340009328E08242CFD90022002384
:1005D000009201930C9B002B01D01C605D60009881
:1005E000019903B0F0BCBB46B246A946A046F0BD97
:1005F000424620239B1A5246DA40414613004A469F
:100600008A40170042461F43534693401E00AF42A4
:10061000C4D900220023009201934346002BD9D075
:10062000FB0772081A4346467B080EE0AB4201D135
:10063000A2420CD8A41A9D41012024196D41002129
:10064000013E24184D41002E06D0AB42EED9013EAA
:1006500024196D41002EF8D1009801995B460019CC
:100660006941002B24DB2B005A464446D3402A0024
:10067000E2401C005B461500002B2ADB26009E4052
:10068000330026004746BE403200801A9941009050
:1006900001919FE7A342BCD883E742462023002173
:1006A0009B1A0022009101920122DA40019286E712
:1006B000424620239B1A2A0046469A402300F340D4
:1006C000444613432A00E2401C005B461500002B01
:1006D000D4DA42462F002023260097409B1ADE40A2
:1006E0003B003343CDE7C046F0B54F46D6464646BD
:1006F0000D0001001800C0B517002B035A0A4B0F5C
:100700001343CA00914602036E004100520AEC0FE7
:100710007D0F1543760D490DC00F8246AC46FF0094
:10072000721A844200D198E0002A00DC81E000299E
:1007300000D1B6E0C9498E4200D172E18021280083
:10074000090408438446382A00DD5EE11F2A00DDE3
:10075000EEE1202039006546801A8740D14085406F
:100760000D4339004F1EB9416746D7402943DB1B73
:100770004A46551AA945894149425B1A984643465B
:100780001B0200D4CCE043465B025B0A984643461A
:10079000002B00D12CE1404601F0BEFD01000839DC
:1007A000202228004346521A8B40D0408D400343FC
:1007B0008E4200DD17E18E1B721C1F2A00DDA7E1AF
:1007C000202118002E00891A8D408840D640D34041
:1007D000691E8D4130439846002605436B0709D0BA
:1007E0000F232B40042B05D02B1DAB42AD416D4296
:1007F000A8441D0043461B0200D494E0974B721C92
:100800009A4200D19DE04146954BED0819400B00FE
:10081000520549075B0229431B0B520D1205134376
:10082000E407234308001900E0BCBA46B146A846D5
:10083000F0BD002A43D08A1B002E00D02AE14C468E
:100840001C4300D1D1E1541E012A00D11FE2834D87
:10085000AA4200D172E2220023E1002A00DC98E0E3
:10086000002942D07D498E4200D1DAE08021280063
:10087000090408438446382A00DD29E11F2A00DCE8
:1008800087E1110065462039CD40202A04D0402060
:100890006146821A91400F4339004F1EB9410D4302
:1008A0001BE12900394300D1B5E0511E012A00D1D6
:1008B000ABE16A48824200D1B2E10A0043E76949EC
:1008C000751C0D4200D0CFE0002E00D093E14946C8
:1008D000194300D1D1E16146394300D0E3E14946F3
:1008E0005807C9080143DB0826E02900394300D135
:1008F00091E0511E012A05D05848824200D18FE173
:100900000A00B8E73D004D444D458941634498468F
:1009100049428844434602261B0200D5EBE0013ED3
:100920006B0700D05CE74346E9085A0711433200E1
:10093000DB084A48824221D01B0352051B0B520D93
:100940006CE70023002169E72A003A4369D04A4650
:100950005807D108DA0880231B0308431A4207D03E
:100960002900ED081D4203D12A00FF08480738433B
:10097000430FC1005B07C908194313000A001A435B
:1009800000D113E28022120313431B03334A1B0BD3
:1009900044E7002A4BD08A1B002E00D1E7E02F4805
:1009A000814200D195E1802000040343382A00DD14
:1009B00043E11F2A00DDDBE120201D004E46801AA6
:1009C0008540D64035434E4686403000D340461ED3
:1009D000B0419C440543ED19BD429B415B426344D9
:1009E00098460E007FE01E4A761A13409846F5E6B8
:1009F000280001F091FC010018311F2900DCCFE62E
:100A00002B00083883400025D2E662463A431100A5
:100A10004F1EB941ACE649465807C9080143DB08F7
:100A200087E749465A07C9081143DB08A6E70D497D
:100A3000701C084200D0BBE0002E00D014E14946F3
:100A4000194300D175E12900394300D07EE14946C0
:100A50005807C9080143DB086EE7C046FF070000DE
:100A6000FFFF7FFFFE0700004946CD1B6146581A75
:100A7000A94589414942884601004046091A8846ED
:100A8000090200D5A6E04146294300D07FE60023B5
:100A9000002451E7C74CA14200D1C7E080242404C0
:100AA0002343382A54DC1F2A00DDCCE020244846AA
:100AB000A41A1D004E46A040D640A5400400D340D5
:100AC00062463543661EB441D31A9C46254344E032
:100AD00062463A4315006F1EBD414D444D45894164
:100AE00049428846984443461B0200D418E7B14B5C
:100AF00001369E4249D04246AF4B01211A401300B5
:100B00006A080D401543D9075B0898460D4365E612
:100B100018001F3EF040202A03D040218A1A93403B
:100B20001D43691E8D410023002698460543F7E6C4
:100B3000110065462039CD40202A04D0402061466E
:100B4000821A91400F4339004F1EB94129430FE6E5
:100B50004A4613431D006B1E9D417D1BAF429B41C6
:100B600062465B42D31A984654460E0007E6484652
:100B7000184300D1B3E0501E012A00D10DE18D4D84
:100B8000AA4200D1A5E0020010E7320000230021B4
:100B900044E620213800891A65468F408D40D040B8
:100BA000791E8F4105433D436746D740DB1994E7E3
:100BB000804A904200D1ECE03900494449459241D5
:100BC000634452429B18DD0749085B0898460600BB
:100BD0000D43A5E64A46BD1AAF42894162464942E5
:100BE000D31A5B1A98465446D1E56C07F90821439D
:100BF000EB0804009DE64A461A4375D16146394325
:100C000014D1802300241B03BCE64A46D51BA9450A
:100C10008941624649429B1A5B1A98460126AEE515
:100C20004A46D1085A071143DB08A7E66346F9088C
:100C30005A0754461143DB08A0E64A4613431D00F9
:100C40006B1E9D41C7E614001E00203CE640202A92
:100C500005D04024A21A93404A461A4391464D4675
:100C60006B1E9D41354378E74A461A4300D06BE638
:100C70006B07F9081943EB0880E66146394354D005
:100C80006346F9085C072143DB08040054E64A4642
:100C9000BD1AAF42894162464942D31A5B1A98464F
:100CA000040001266BE54A46D51BA94589416246E9
:100CB00049429A1A521A9046120232D54A46BD1A31
:100CC000AF42894162464942D31A5B1A98460400F2
:100CD00084E56346F9085A071143DB084EE6F90834
:100CE00068070143EB0824E662463A4300D198E6E0
:100CF0004A46D1085A071143DA0880231B031A42D7
:100D000008D06046C5081D4204D154462A00F9089F
:100D1000430719434B0FC9005B07C9081943130068
:100D20002CE64146294300D0FAE500230A000024BE
:100D300002E66B07F9081943EB08FDE56346F9087D
:100D40005B07194363460400DB0817E63D004D448A
:100D500063444D45894198464942884443461B02B5
:100D600000D4DDE54246144B01261A409046D7E5F3
:100D700010001E002038C640202A05D04020821ACC
:100D800093404A461A4391464D466B1E9D4135435A
:100D900021E602000023002140E54A46D519BD4264
:100DA00089416344984649428844B3E50021014A99
:100DB0000B0033E5FF070000FFFF7FFFF0B557464C
:100DC0004E464546DE46E0B5814605000C03480028
:100DD00092461F0085B0240B400DCE0F002859D03D
:100DE000874B984200D198E06B0FE4001C438023AE
:100DF0001B0423439846834BED009B4600239946F2
:100E0000834400933C037B005046240B5B0DFF0F93
:100E1000002B67D07A4A934218D07A49420F8C4609
:100E2000E40059461443802263441204CB1A14434D
:100E30009B46C200002033007B409A464B460F2B56
:100E400000D9EFE070499B00CB589F466F4B52464C
:100E50009C462243E344002A00D095E04946022301
:100E60001943894600240220E5E7002300240025D9
:100E700052461B052343D20713432800190005B02F
:100E8000F0BCBB46B246A946A046F0BD00240025F2
:100E90005B4BEDE74B462343984600D189E0002C9D
:100EA00000D1E0E1200001F037FA010002000B3927
:100EB0001D235B1A49461000D940083884400B00B6
:100EC0004D4623439846854051483C03831A9B4630
:100ED0000023994600937B005046240B5B0DFF0FC7
:100EE000002B97D15246224355D0002C00D1CAE1A5
:100EF000200001F011FA02000B3A1D2301009B1A99
:100F000052460839DA408C40144352468A40414BDD
:100F100058449B46834400208DE74B462343984624
:100F200040D108239946063B00258346009369E794
:100F3000B246009B022BA9D0032B00D111E2012B5A
:100F400093D0354A5A44002A00DC3CE16B0700D0BC
:100F5000A7E1ED084346DB0106D542462F4B1A4078
:100F600090468022D2005A442D4B9A428EDC434652
:100F7000520558075C020543240B530D78E7BA4627
:100F8000A04615000090D4E74A4603231A43914631
:100F9000032052464FE7494601231943894600245E
:100FA000012048E70C239946093BA046834600935D
:100FB00028E70423994600239B460133002500932C
:100FC00020E7002380249A4600250D4B24034FE799
:100FD000802341461B03194208D01C4206D11C4302
:100FE0002403BA461500064B240B41E780244346F0
:100FF00024031C432403B246014B240B38E7C046AC
:10100000FF07000001FCFFFF0C4F010801F8FFFF84
:101010000DFCFFFFF3030000FF030000FFFFFFFED6
:10102000FE070000444500D216E100D111E1012382
:101030005B429C462E0040460025E3442302140EEA
:101040001C431B0C994623041F0C120249460092B4
:101050000197FFF7E9F802007A430B04310C804650
:1010600019438A420BD901235B429C460919E0448B
:101070008C4204D88A4202D9831E98460919881ADC
:101080004946FFF7D1F809048C4631046646019AB7
:10109000090C4243030031438A4204D90919013B38
:1010A0008C4200D811E1891A4246009E12041A436C
:1010B000330C1F00100C9046029313043204160CDC
:1010C00032001B0C5A4303967B4346437843170C6C
:1010D000BC469B1963449E4203D980267602B446DF
:1010E00060441E0C301816041B04360C9E198142F5
:1010F00000D29CE000D197E0AE1B091AB5428041B6
:101100004042081A844200D111E14946FFF78CF8A9
:10111000019A0B044243310C050019438A4207D956
:101120000919013D8C4203D88A4201D9851E09194B
:10113000881A4946FFF778F809048C463104664658
:10114000019A090C4243030031438A4207D9091925
:10115000013B8C4203D88A4201D9831E0919039EA0
:10116000891A32002D041D43029F2B041B0C5A4385
:101170007B439C46280C4643130CB4446344784399
:101180009E4203D980267602B44660441E0C1204A7
:101190001B04120C30189B18814206D302D0012385
:1011A0001D43CEE6002B00D1CBE661186E1EA14296
:1011B00000D2A4E0814200D2C9E000D1D9E03500DC
:1011C000EDE701256D420121891A382900DD4CE641
:1011D0001F2900DC7FE01F235B429A1A4346D3405D
:1011E000202904D04446654A5A44944025436A1E47
:1011F000954107222B43150000241D401A4200D1BF
:10120000A1E00F2200241A40042A00D198E01A1D00
:101210009A429B415B42E4181300220200D48FE003
:1012200001230024002523E6B54200D364E74346AA
:101230005A1E009B9C4665441F009D429B415B4299
:101240001B19C9188C423AD2884263D860D09046A4
:1012500052E7AA4200D9EAE64346DE0758086B087F
:101260001E43ED07EAE6484601F056F80100020089
:10127000153120321C2900DC1AE64B460838834021
:101280000025984620E601F047F803001A001532C1
:1012900020301C2A00DC30E65446083B00229C40EB
:1012A00035E60F232B40042B00D152E605235B4289
:1012B000AB429B4104355B42ED0898444AE68C42C0
:1012C000C5D1AF42C0D9904616E78A4200D8EAE6B7
:1012D000831E0919E7E62A4A28005A4443469540E6
:1012E0009340C8406A1E9541444603432B43CC407B
:1012F0005A0792D00F221A40042A88D18DE7350070
:10130000814200D04BE7009A934200D047E718E6AD
:10131000AE429CD902235B429C46009BE0449C4623
:1013200065449D429B415B421B19C918E4E6154A7E
:101330005A44002A00DC44E701230025984409E6CA
:1013400065076402240BDB081D43002390E5009E23
:10135000023D7200B242BF417F423C19091900921E
:10136000CEE78024434624031C432403064B240B6E
:101370007EE5009A9A42EAD33500C4E73E040000B5
:101380001E040000FF030000FF070000F0B54F46F9
:101390004646D646944691461A03120B184DC0B5E0
:1013A0004C000F0392465A00060080463F0B012076
:1013B000640DC90F520DDB0FAC420AD0AA4203D014
:1013C000944201D157450DD0E0BCBA46B146A8467B
:1013D000F0BD3D003543F7D1A242F5D152466546F6
:1013E0002A43F1D10120C845EED1994206D0002C04
:1013F000EAD13E433000461EB041E5E70020E3E776
:10140000FF070000F0B54E4645465746DE4604004D
:101410001800E0B516001B031B0B324D0F034A00EA
:1014200099464300A446B0463F0B520DC90F5B0DD1
:10143000C00FAA4229D0AB4218D0002A2AD13C437F
:10144000A34665426541002B02D14C46264327D076
:10145000002D15D1814228D00220013908400138E1
:10146000F0BCBB46B246A946A046F0BD4D462E4351
:101470002FD1002AEED13C4365426541002DE9D0D1
:101480000028EDD101204042EAE73D00254320D16C
:101490009342EBD0002BDDD14C462643DAD1DBE77B
:1014A0005B460020002BDBD0D6E79A420ADCE7DB64
:1014B0004F45D1D810D000204F45D1D20029E1D0DE
:1014C0000800CDE74342584102234042184001380A
:1014D000C6E702204042C3E7C445BDD80020C4454A
:1014E000BED2EBE7FF070000F0B54E464546574633
:1014F000DE4604001800E0B516001B031B0B314D3F
:101500000F034A0099464300A446B0463F0B520DD4
:10151000C90F5B0DC00FAA4211D0AB4214D0002AF4
:101520002FD13C43A34665426541002B14D14C4664
:10153000264311D15B460020002B17D010E03D0060
:10154000254312D193421CD14D462E430DD1002A82
:1015500004D13C4365426541002D0DD1814216D036
:10156000022001390840013800E00220F0BCBB46EF
:10157000B246A946A046F0BD0028F7D1012040425E
:10158000F4E7002BEAD14C462643E7D1E8E79A423C
:1015900006DD434258410223404218400138E5E746
:1015A0009A42E9DB4F45DBD806D000204F45DDD21B
:1015B0000029E3D00800D9E7C445D1D80020C445AC
:1015C000D4D2F5E7FF070000F0B557464E46454632
:1015D000DE46E0B598460C034B000600924687B005
:1015E000240B5B0DCF0F002B6CD0DD4A934200D152
:1015F00086E0420FE4001443802212041443D94AC7
:10160000C500944663440093002399469B46434695
:1016100042461E03D20F5B0050469046360B5B0DD0
:1016200000D178E0CE4A93421DD0CE49420F8C467D
:1016300000996344F6008C46164380229C441204B1
:1016400063461643C20000200093009943460131CF
:101650008C4649467B4001930F2900D97EE0C24B5E
:10166000890059588F465246009B324300D056E1BC
:10167000BB4900268C466344494600930223194324
:1016800089460220E1E74346019334001500834672
:101690005B46022B5ED0032B00D1F3E1012B00D07F
:1016A00018E1002200240025019B12052243DB07DC
:1016B0001A432800110007B0F0BCBB46B246A94649
:1016C000A046F0BD2500054300D141E1002C00D12A
:1016D000ADE1200000F020FE010002000B391D23C7
:1016E00010005B1A3100350008388440D94085402D
:1016F0000C439E48831A0093002399469B4686E735
:101700000500254300D01CE1082200930223002499
:1017100091469B467BE75246324300D10AE1002EB8
:1017200000D176E1300000F0F7FD02000B3A1D23F6
:1017300001009B1A52460839DA408E401643524641
:101740008A40009B8949181A03008C466344002094
:1017500000937AE700240025814AA5E72F0C2D0489
:101760002D0C2B00110C1204120C5343984613003D
:1017700028007B43994648434844834640460B0033
:10178000000C824658467B4350440293814506D95B
:101790009A4680235B029946CA4453460293030C3F
:1017A0009B4643461B0400041B0C9846030043441D
:1017B0000493330C99462B003604360C7343984639
:1017C00033007B439A464B465D435F434346554453
:1017D000180C4019824503D980235B029A4657446E
:1017E000050CEB19059343461D042D0C000440190C
:1017F000250C2404240C270057436A4390462A00F2
:101800003B0C9A464A4361434144514483448845D2
:1018100003D980235B02984642443F040B0C3F0CE3
:101820000904C919270098464B4677435C436E4329
:101830005D433B0C9946A4194C4442440395A6428F
:1018400004D980235B02984645440395029B3F04DC
:101850005B441E008342804123049846059B3F0C55
:101860004744984676188E428941474440423D1885
:10187000A846934649428A46C3449F42BF41804599
:101880008041039BDA449846534640427F420743D7
:10189000240C934592418A4589413F19DC0D049BF4
:1018A00075021D43681E85415346524249420A4310
:1018B000BF184744F60D7F0235435A023C43154397
:1018C000FB0100D4C1E001216A080D401543E20785
:1018D0001543640826496144002956DD6B0709D089
:1018E0000F222A40042A05D02A1DAA42AD416D428A
:1018F00064191500E30104D580211E4AC900144073
:1019000061441D4A914200DD24E76207ED0864024C
:1019100049051543240B4A0DC6E60197B8E6104A5F
:101920000320944663444A46009303231A43914696
:1019300052468AE64946012319438946002601207A
:1019400083E60C2200930323050091469B465EE646
:101950000423994600230093013300249B4656E656
:10196000FF07000001FCFFFF4C4F01080DFCFFFFCB
:10197000FF030000FFFFFFFEFE070000002380249E
:101980000025444A019324038EE60120401A38289A
:1019900000DD86E61F285BDD1F2223005242511A1C
:1019A000CB401900202803D03B4A62449440254391
:1019B0006A1E95412A000A4307210D0000241540A4
:1019C00011425BD00F2100241140042953D0111D76
:1019D000914292415242A4180A0023024BD501229F
:1019E0000024002560E680231B031C4209D01E4210
:1019F00007D133431C0343461500240B254A0193AA
:101A000052E68022120314432403224A240B019736
:101A10004AE600F081FC03001A00153220301C2A2F
:101A200000DC84E65646083B00229E4089E600F032
:101A300073FC01000200153120321C2900DC4EE647
:101A4000340008380025844053E6009B9C4641E75B
:101A50001249220061442E008D408A40C640691E12
:101A60008D4132432A43C4405307B6D00F21114061
:101A70000429ACD1B1E765076402240BD2081543F1
:101A8000002211E68022120314432403014A240B8E
:101A90000AE6C046FF0700003E0400001E040000E6
:101AA000F8B557464E464546DE460400E0B51F00F1
:101AB00010000B03620F4E00CD0F5B0A3903134376
:101AC000490AE200440F2143C24C91469246C000AD
:101AD0007A008046760D520DFF0FA24200D1B4E08D
:101AE00001246740BB46BD4200D188E0B41AA44639
:101AF000002C00DCB2E0002A00D1C5E0B54A9642D5
:101B000000D18BE28022120411436246382A00DDA4
:101B1000A1E11F2A00DD16E220270C00BF1ABC40FD
:101B20000200A0466446B840E24044461443020026
:101B3000501E82416046C14022435B1A49468C1ABE
:101B4000A145924152429B1A984643461B0200D43B
:101B500017E143465B025B0A98464346002B00D1DF
:101B60006CE1404600F0D8FB0200083A202120003A
:101B70004346891A9340C84094400343964200DD8F
:101B800057E1961B711C1F2900DDCBE120221800B4
:101B90002600521A94409040CE40CB40621E9441A1
:101BA0003043984600260443630709D00F2323409F
:101BB000042B05D0231DA342A4416442A0441C0071
:101BC00043461B0200D4DFE0824B01369E4200D127
:101BD000FBE04246804BE4081A40130071055207AF
:101BE0005B0222431B0B490D0905ED0719432943ED
:101BF0001000F0BCBB46B246A946A046F8BDB41AD8
:101C0000A446002C58DD002A00D19EE0714A96427D
:101C100000D13BE18022120411436246382A00DDE4
:101C2000C1E01F2A00DCBBE10C00203AD4402200B6
:101C30006446202C04D040273F1BB940084380460F
:101C40004446611E8C411443B1E00C0004432AD089
:101C5000BB46BD422DD0614CA446B4446446002C22
:101C60005CD0941BA446002E00D015E14D461D43C8
:101C700000D1C3E1651E012C00D10CE2554EB442E7
:101C800000D1F8E1AC460EE10A00024300D136E192
:101C90002200013A012C00D1C6E14E4CA44500D1EE
:101CA000F4E0944631E701246740BB46BD4200D0D2
:101CB0001CE74A4CA446B4446446002C00D1CFE053
:101CC000941BA446002E00D15CE1424EB24200D1EA
:101CD000ECE18026360433436446382C00DDB3E162
:101CE0001F2C00DD38E22026361B1C00B4404F4676
:101CF000A0466446E74044463C434F46B7403E005A
:101D0000771EBE4134436646F340C9182418844206
:101D10009B415B429846160088444EE0304A741C52
:101D2000144200D0D6E04A461A43002E00D05BE1B0
:101D3000002A00D1A5E10A00024300D0BBE14A46D7
:101D40005907D2080A43DB0827E00A00024300D102
:101D500074E12200013A012C05D01E4CA44500D1AB
:101D600094E0944659E74844484592415B189846A8
:101D7000040052429044434602261B0200D5C4E0B0
:101D8000013E630700D011E74346B4465907E20815
:101D90000A43DB080F498C4540D061461B034905C7
:101DA0001B0B490D20E701430C00611E8C414C4484
:101DB0004C45924152429046984443461B02E0D51E
:101DC000044B01369E4200D09FE0310000230022E8
:101DD0000AE7C046FF070000FFFF7FFF01F8FFFF93
:101DE000FE070000002A00D160E10A0002434DD046
:101DF0004A465C07D20822438024DB08240323429E
:101E000007D0CE08264204D15D463300C2084907F8
:101E10000A43510FD200D20849070A43110019435F
:101E200000D1C8E1802109030B431B03D5491B0BDB
:101E3000DAE6D549B61A0B409846B5E6200000F020
:101E40006BFA020018321F2A00DC8FE623000838E4
:101E50008340002492E608430200501E82416DE652
:101E6000CA4C721C224200D0ADE04A461A43002EF2
:101E7000B8D1002A00D158E10A00024300D059E14C
:101E80004A465907D2080A43DB0886E74A465907FB
:101E9000D2080A43DB08C1E7BA4DAA4200D11EE1CD
:101EA00080252D042B436446382C5DDC1F2C00DD7F
:101EB000D0E0202567462D1B4E461C00FE40AC405E
:101EC00034434E46AE403500FB406E1EB541C91A44
:101ED0002C434EE04A46141AA14592415242904684
:101EE0005F1A3A004746D21B9046120200D58BE09B
:101EF0004246224300D030E6002300254DE74A4603
:101F00005907D2080A43DB0844E742469E4B610862
:101F10001A401300012214400C43DA075B0898466C
:101F2000144341E61A001F3EF2401600202903D058
:101F30004022511A8B401C43621E944100233443BB
:101F4000984600261DE70C00203AD4402200644643
:101F5000202C04D040273F1BB9400843804644460C
:101F6000611E8C412243E9E54C4623431C00631E5D
:101F70009C41041BA0429B415B42CB1A98465D46A4
:101F80001600E2E54E461E4300D1AEE0661E012C6F
:101F900000D1FDE07B4FBC4200D107E1B4469BE697
:101FA00064462022121B0C00944007009040A0467B
:101FB0006446421E90416246E7404446D1403C435D
:101FC00004435B18F3E66F4CA24200D1D5E04844CD
:101FD0005B184845894149425B18DC0740085B08AB
:101FE000984616000443CCE6002A00D082E00A009E
:101FF000024340D1802300251B0313E74B07C2088F
:102000001A435D46CB08C5E64A46841AA04292416F
:10201000CB1A52429B1A98465D469EE54A4659079E
:10202000D2080A43DB08F9E64A46141AA145924150
:102030005B1A52429B1A9846012686E54A46590782
:10204000D2080A43DB08A5E64C4623431C00631E66
:102050009C415BE665461E00203DEE40202C05D0ED
:1020600040252D1BAB404C461C43A2465446631EE4
:102070009C4134437DE74B07C2081A435D46CB08B9
:10208000CCE60A00024300D136E74B07C2081A43E8
:102090005D46CB0881E64A46841AA0429241CB1A9B
:1020A00052429B1A98465D4601264EE54B07C208F0
:1020B0001A43CB08B2E64A46141AA14592415F1A68
:1020C0005242BA1A904612026BD54A46841AA0426E
:1020D0009241CB1A52429B1A98465D4664E54B07E3
:1020E000C2081A435D46CB0898E64B07C2081A435C
:1020F000CB084FE60A00024390D04A465C07D2085C
:1021000014438022DB081203134208D0CE08164283
:1021100005D1C0084907084304005D463300610F3C
:10212000E2004907D2080A4378E64B07C2081A437F
:10213000CB0832E648445B184845924198465242E3
:102140009044434604001B0200D41AE642460E4B5C
:1021500001261A40904614E666461F00203EF740CE
:10216000202C05D04026361BB3404C461C43A246CB
:102170005446631E9C413C43C8E5110000230022E5
:1021800032E5C046FF070000FFFF7FFFFE070000AB
:102190004A461418844292415B1898465242904431
:1021A000E9E54246224300D1A6E6EAE54B07C2082C
:1021B0001A43CB0832E600220149130014E5C04659
:1021C000FF07000070B505000C480C03160049001D
:1021D0001A035B00240B490D120B5B0D814208D0E2
:1021E000064900208B4203D132431000421E904129
:1021F00070BD01202C43FBD1F2E7C046FF07000071
:102200000A0030B5134C530009030500090B0020E8
:102210005B0DD20FA34204DD0F48834202DD0F4B5A
:10222000D01830BD8020400301430D48C01A1F283C
:1022300008DD0C48C31AD9400B005842002AF0D1DF
:102240001800EEE7084CC540A446634499400B00D3
:102250002B43F2E7FE0300001D040000FFFFFF7F99
:102260003304000013040000EDFBFFFF70B50028ED
:1022700016D0C317C5185D40C40F280000F04CF8F5
:10228000114A121A0A2816DC03002E0015339E404C
:102290000B23181AC54053052D032D0B5B0D03E0CE
:1022A00000240023002500261B052B43E4072343BD
:1022B0003000190070BD0B38854053052D030026F2
:1022C0002D0B5B0DF0E7C0461E04000010B5041E88
:1022D00010D000F021F80F4B1B1A0A2811DC0B223A
:1022E0002100121AD14015300A035B058440120BFD
:1022F0005B0D01E0002300221B05134320001900A1
:1023000010BD22000B3882405B0512030024120B23
:102310005B0DF1E71E0400001C2101231B04984201
:1023200001D3000C10391B0A984201D3000A083966
:102330001B09984201D30009043902A2105C40181D
:102340007047C046040302020101010100000000C1
:102350000000000010B5002903D1FFF7DDFF203099
:1023600002E0081CFFF7D8FF10BDC04610B50400FE
:102370000F4B1978FA208000FDF7D0FE01000D4BBD
:102380001868FDF7CBFE00F01BFC00280DD1032CD4
:1023900001D901200AE0013000222100404200F072
:1023A000C3FB034B5C60002000E0012010BDC04671
:1023B000000000205401002010B5084A1368402195
:1023C0000B4313600020FFF7D1FF041E02D001244D
:1023D000200010BD08F094FAFAE7C0460020024041
:1023E000034A1168034B1B785B1813607047C046A3
:1023F0006002002000000020014B18687047C046B2
:102400006002002070B50400FFF7F6FF0500631CB2
:1024100002D0044B1B78E418FFF7EEFF401BA042EC
:10242000FAD370BD00000020024A136802218B43DA
:102430001360704710E000E0024A136802210B436A
:102440001360704710E000E010B582B00400084B44
:1024500018680849FDF762FE44430194019B002B74
:1024600003D0019B013B0193F8E702B010BDC046C9
:102470005401002040420F0070B5040002689168CA
:1024800003230B40012B0DD091681A4B19420ED03B
:10249000636D102213436365A36D0F3A1343A36565
:1024A000012070BD1368DB07EED50020F9E79368C3
:1024B00001210B4393600120FFF7C6FFFFF79CFF4C
:1024C000050023681B68DB0712D4FFF795FF401B4C
:1024D0000A28F6D923681B68DB07F2D4636D102243
:1024E00013436365A36D0F3A1343A3650120D8E737
:1024F0000020D6E71700008070B5041E00D1E2E08E
:10250000436D002B30D0636DDB0633D422689168B5
:10251000042005000D4008422CD1616D6B4B194021
:102520000633FF3319436165916801330B40012B7A
:1025300029D06368C02109068B4228D08021C905B3
:102540008B4224D0802109068B4220D013699B0046
:102550009B0813615E4B1A685E490A401A601A684C
:1025600061680A431A601BE083655022835407F0B8
:10257000D5F8C8E7636D102213436365502300222A
:10258000E254012070BD1368DB0713D4D1E713694F
:102590009B009B0813612268136961680B431361F8
:1025A0002268D36818218B43D3602268D368A1685E
:1025B0000B43D360464A136847490B4013601368C6
:1025C000616B49060B43136023689A68D20004D4F8
:1025D0009968802252050A439A602368DA683F4965
:1025E0000A40DA602068C268E368216902292DD0B8
:1025F0002B432021615C49030B432C21615C490082
:102600000B43216B0B43A16989030B43E169C903A8
:102610000B431343C360636AC222FF32934205D067
:102620002168CA68A06A03431343CB602123E35C9B
:10263000012B0DD0E36B012B1ED023681A69D20742
:102640002DD51A6901218A431A6128E00425CFE7B4
:102650001F33E35C002B06D12268D16880235B0224
:102660000B43D360E6E7636D202213436365A36DDC
:102670001F3A1343A365DDE72268136918490B402D
:10268000136121680A69236C606C0343A06C0343E7
:1026900013430B612268136901210B431361226804
:1026A000536907218B43536122685369A16B0B4324
:1026B00053610023A365636D03229343023A1343DE
:1026C000636500205EE701205CE7C046FDFEFFFF7A
:1026D00008270140FFFFC3FFFFFFFFFD1902FEFFB8
:1026E00003FCFFFF10B5040003689B685B0736D44A
:1026F0005023C35C012B34D050230122C254C36940
:10270000012B1CD10020636D174A1A4080235B0007
:10271000134363650023A3655022A3542368343A0E
:102720001A606369082B0FD0226853681C210B4381
:1027300053602268936804210B43936010BDFFF738
:102740009BFE0028FAD1DEE72268536804218B4300
:1027500053602268536814310B435360E9E7022049
:10276000ECE70220EAE7C046FEF0FFFFF8B5040000
:102770000D00160003689A6852073CD45022825C10
:10278000012A3AD0012150228154DA680A43DA60E2
:10279000C369012B04D0FFF76FFE071E29D100E0AB
:1027A0000027636D164A1A4080235B00134363655C
:1027B0000023A3655022A354E36C124ADA62E36C4F
:1027C000114A1A63E36C114A5A6323681C221A6087
:1027D0002268536810210B43536021684031330055
:1027E0002A00E06C00F0A2FA2268936804210B43EF
:1027F00093603800F8BD0227FBE70227F9E7C046DF
:10280000FEF0FFFF152800088B2800089928000813
:102810007047000010B5836A5A6D502111422CD1C7
:10282000596D802292000A435A651A68D068C02107
:102830000901084214D12021595C002910D11168E6
:1028400009070DD5916849070ED451680C208143C2
:1028500051605A6D0B490A400431FF310A435A65F1
:102860001800FFF7D5FF10BD5A6D20210A435A65A5
:102870009A6D1F390A439A65F2E7DB6C5B6B9847E8
:10288000F1E7C046FEFEFFFF704710B5806AFFF714
:10289000FBFF10BD7047704710B5806A436D402242
:1028A00013434365836D3C3A13438365FFF7F3FF9E
:1028B00010BD000010B5040003681A68520702D565
:1028C0005A68520705D41A6812072DD55A6812079C
:1028D0002AD5626DD20604D4616D802292000A432B
:1028E0006265D968C0221201114214D12022A25C73
:1028F000002A10D11A6812070DD59A68520734D4ED
:102900005A680C218A435A60636D224A134004328C
:10291000FF32134363652000FFF77AFFA369012BA1
:1029200002D023680C221A6023681A68120602D5A6
:102930005B681B0622D423681A68D20614D55A682D
:10294000D20611D5226B002A02D0DA68D20708D548
:10295000A26D02210A43A26510221A602000FFF72F
:102960009AFF236810221A6010BD636D2022134362
:102970006365A36D1F3A1343A365CCE7626D8023A3
:102980005B02134363652000FFF784FF2368802206
:102990001A60D0E7FEFEFFFF70B504000D00502363
:1029A000C35C012B5CD050230122C25403689A6897
:1029B000520723D42B4A4968914232D0996A2A6837
:1029C0005203520B0A439A622B685B031FD42B6895
:1029D0009B0305D5244A11688023DB030B43136056
:1029E0002B68DB0305D5204A116880235B040B4369
:1029F000136050230022E254002070BD436D20225A
:102A00001343436550230022C2540120F5E7164AC0
:102A1000116880231B040B4313600A20FFF714FD89
:102A2000D5E7996A2A685203520B914399622B6841
:102A30005B0304D50C4A13680C490B4013602B68E8
:102A40009B0304D5084A136809490B4013602B689F
:102A5000DB03CED5044A136806490B401360C8E770
:102A60000220CAE70110000008270140FFFF7FFF96
:102A7000FFFFBFFFFFFFFFFE70B504005023C35CE4
:102A8000012B4DD050230122C254036899680232B1
:102A90000A40012A08D11A68D20705D5436D2022C1
:102AA00013434365012037E0626D1E490A40063139
:102AB000FF310A436265DE6801310E40DA688A43FD
:102AC000DA602268916880231B060B439360FFF74E
:102AD00093FC050023689A68002A13DAFFF78CFC40
:102AE000401B0A28F6D923689B68002BF2DA636D35
:102AF00012229343023A1343636550230022E254A7
:102B000001200CE0DA681643DE60636D0322934314
:102B1000023A13436365002050230022E25470BD43
:102B20000220FCE7FDFEFFFF70B5002811DB8308E3
:102B3000134EC0339B009D5903242040C000FF2248
:102B400014008440A54389010A4082402A439A51D7
:102B500070BD0F230340083B9B0806339B00094AC6
:102B6000944663445C6803221040C000FC321500A8
:102B70008540AC4389010A40824022435A60E7E71E
:102B800000E100E000ED00E0002805DB1F23184015
:102B90001E3B8340014A13607047C04600E100E0DD
:102BA00000280ADB1F2318401E3B83400349802274
:102BB0008B50BFF34F8FBFF36F8F704700E100E082
:102BC000013880235B0498420FD2094A50600948BB
:102BD000036A1B021B0AC02109060B430362002380
:102BE000936007331360002070470120FCE7C04664
:102BF00010E000E000ED00E070B51C25446C2540BD
:102C0000066C0124AC407460046863608368102B18
:102C100004D0036899600368DA6070BD03689A6045
:102C20000368D960F9E7000070B5041E3DD005685F
:102C30001F4BE8181421FDF771FA800060641D4BEA
:102C4000236425230222E2542B681B4A1A40A368FE
:102C5000E1680B4321690B4361690B43A1690B4395
:102C6000E1690B43216A0B4313432B608023DB0193
:102C7000A2689A4210D0114B19681C22656C15404D
:102C80000F20A840814319601968606C0240606899
:102C9000904002000A431A600023E36325220121C9
:102CA000A154013AA354002070BD0120FCE7C046A6
:102CB000F8FFFDBF000002400F80FFFFA8000240A8
:102CC00070B5041E29D0026813680125AB43136058
:102CD0000668134BF0181421FDF720FA8000606499
:102CE000104B2364002333601C22616C1140206C64
:102CF0008D4045600C4D2968606C02400F2090406B
:102D000081432960E36223636363A363E363252252
:102D1000A354013AA354002070BD0120FCE7C04633
:102D2000F8FFFDBF00000240A800024070B504009B
:102D30002420205C012832D0242001252554013094
:102D4000205C012804D024230022E254022070BD1C
:102D50002430013525540020E063256828680126C9
:102D6000B04328602000FFF747FF236B002B0BD0F8
:102D7000226813680E210B43136022681368012137
:102D80000B4313600020E2E72268136804218B43A1
:102D900013602268136806310B431360EDE70220CD
:102DA000D5E710B52523C35C022B06D00423C363EB
:102DB00020330022C254012010BD026813680E2186
:102DC0008B43136001680A6801239A430A601C223E
:102DD000416C0A40016C1C0094404C6025228354D5
:102DE00023330022C2540020E6E710B52523C35C3C
:102DF000022B03D00423C363012010BD02681368B3
:102E00000E218B43136001680A6801239A430A600C
:102E10001C22416C0A40016C1C0094404C6025222D
:102E2000835423330022C254836B002B02D0984773
:102E30000020E2E70020E0E770B5036C1968046841
:102E400025681C23426C134004229A40114214D07E
:102E50006A0712D523689B0603D423680422934390
:102E600023601C22436C1A40016C042393404B6086
:102E7000036B002B00D0984770BD02229A4011428C
:102E80001AD0AA0718D523689B0606D423680A22FD
:102E9000934323602523093AC2541C22436C1A40F1
:102EA000016C022393404B6024230022C254C36A66
:102EB000002BE1D09847DFE708229A401142DBD08F
:102EC0002B07D9D523680E22934323600E32436C1F
:102ED0001A40016C01231C0094404C60C3632522FE
:102EE000835423330022C254436B002BC4D0984731
:102EF000C2E70000F0B5002357E084685F000326B6
:102F0000BE40B4432600CC68BC403443846044686F
:102F100094434A681609012232409A402243426093
:102F200053E0DC080834A400265805321A40920009
:102F30000F279740BE430F6997403A003243225013
:102F400057E0052600E00026A64034003C4302324C
:102F50009200474E9451474A1468EA432600AE4314
:102F60004F68FF0301D52C432600424C266064685D
:102F7000260016404F68BF0301D52C4326003D4C68
:102F80006660A468260016404F68FF0201D52C43F6
:102F90002600384CA660E46822404E68B60201D58F
:102FA0002A002243334CE26001330C682200DA40ED
:102FB0005DD001229A40250015401442F4D003242C
:102FC0004E683440013C012C97D903224C682240C2
:102FD000032A09D0C2685E000324B440A24314004F
:102FE0008A68B2402243C26003224C682240022A0F
:102FF00097D004685E0003221700B740BC434F68B7
:103000003A40B24022430260C02292024C6814420D
:10301000CAD0194C626B0126324362639A08941C31
:10302000A400134EA75903261E40B4000F26A64045
:10303000B743A026F605B04285D0104EB0420ED060
:103040000F4EB0420DD00F4EB0420CD00E4EB042DB
:103050000BD00E4EB04200D173E7062674E701266E
:1030600072E7022670E703266EE704266CE7F0BDE0
:103070000000014000040140001002400004005024
:1030800000080050000C005000100050001C0050C0
:10309000F0B5CE46474680B58946002323E005219A
:1030A000884601E0002188464146A140A94252D00D
:1030B00004685E000325B5402C430460DC08083436
:1030C000A400275807261E40B6000F21B1408F43A9
:1030D0002750C468AC43C460446894434460826829
:1030E000AA43826001334A46DA4049D001229A401D
:1030F0004C461440A44649461142F3D09F08BC1CDC
:10310000A400214D655903241C40A4000F26A640AD
:103110003540A021C9058842C4D01C4988420ED040
:103120001B4988420ED01B4988420ED01A4988425A
:103130000ED01A498842B2D006218846B4E7012150
:103140008846B1E702218846AEE703218846ABE70F
:1031500004218846A8E7124C256861468D43256006
:1031600065688D436560A5688D43A560E5688D43FE
:10317000E5600549BC1CA4006558B543655097E758
:10318000C0BCB946B046F0BD00000140000400508C
:1031900000080050000C005000100050001C0050AF
:1031A0000004014003690B4201D001207047002058
:1031B000FCE7002A01D0816170478162FCE770471B
:1031C00010B5054B5B69184200D110BD024B586128
:1031D000FFF7F5FFF9E7C04600040140034A116814
:1031E00080235B000B4313607047C04600700040B3
:1031F00070B502001A4B1D68802080002C0004402E
:10320000184B1B6A01263340054206D0002B04D020
:10321000134D2868144E30402860114D286803264D
:10322000B043104328601148026904252A43026113
:10323000012912D040BF20BF20BF0C490A690420D9
:1032400082430A61002C07D0002B05D0044A116884
:1032500080239B000B43136070BD30BFEDE7C04679
:103260000070004000000140FFFDFFFF00ED00E0A6
:10327000034A116880239B000B4313607047C046CC
:103280000070004010B5264BDA680C231340082B61
:1032900042D00C2B11D0042B09D0214B5A68520B71
:1032A00007231340013380200002984010BD1C4BBF
:1032B0001B68DB0632D51B48F8E7910C0F230B4047
:1032C0001949C85C920D03231A40541C144BDB6847
:1032D000DB0309D5154A00230021FDF7F3F822008E
:1032E0000023FDF7CFF8E1E70D4B1B68DB0609D59E
:1032F0000C4A00230021FDF7E5F822000023FDF72A
:10330000C1F8D3E70A4A00230021FDF7DBF82200C9
:103310000023FDF7B7F8C9E70448C7E70448C5E745
:103320000010024000093D00E84E010800127A003A
:103330000024F400F0B583B0041E00D19FE2C54B19
:10334000DA680C251540DE6880235B021E400368A6
:10335000DB0736D5082D2CD00C2D28D063688022B1
:103360005202934255D0A022D202934258D0B94B78
:103370001A68B9490A401A601A68802149020A404D
:103380000192019A1A68B5490A401A606368002BD5
:1033900052D0FFF731F80700AE4B1B689B0310D4E7
:1033A000FFF72AF8C01B6428F6D9032068E2002E34
:1033B000D4D0A84B1B689B0303D56368002B00D1B6
:1033C00060E223689B076DD5E3689A0605D5A1489E
:1033D000026820210A4302608B43042D3CD00C2D4F
:1033E00038D0002B00D1B0E09A490A680920824306
:1033F00013430B60FFF700F80600964B1B685B0752
:1034000000D599E0FEF7F8FF801B0228F5D90320CC
:1034100036E2904A116880235B020B431360B5E7E4
:103420008C4B19688022D2020A431A6019688022E4
:1034300052020A431A60A9E7FEF7DEFF0700854B38
:103440001B689B03BDD5FEF7D7FFC01B6428F6D9C8
:10345000032015E2002EC4D17E4A1268520702D51D
:10346000002B00D110E27B4E72687D490A40216931
:1034700009020A437260326809218A4313433360A8
:10348000FFF700FFF26812090F231340754AD35C5F
:10349000D840754B1860754B1868FEF767FF002819
:1034A00000D0EDE12368DB062DD5002D60D1694BFE
:1034B0001B689B0503D5E369002B00D1E6E1654A53
:1034C00053686B490B40616A0B43536053681B029E
:1034D0001B0A216A09060B435360636A590B0131C9
:1034E00080231B028B40D16809090F220A405D49E5
:1034F0008A5CD3405C4A13605C4B1868FEF736FF69
:10350000002800D0BCE123681B077DD56369002B30
:1035100067D0504A136D01210B431365FEF76CFF12
:1035200006004C4B1B6D9B076ED4FEF765FF801B9E
:103530000228F6D90320A3E146494B68484A1340C4
:103540002269120213434B60ACE7424A136801211F
:103550008B431360FEF750FF06003E4B1B685B0772
:10356000A0D5FEF749FF801B0228F6D9032087E18A
:10357000E369002B22D0374A116880235B000B439C
:103580001360FEF739FF0600324B1B689B0506D41B
:10359000FEF732FF801B0228F6D9032070E12D4A86
:1035A000536833490B40616A0B43536053681B02F5
:1035B0001B0A216A09060B435360A4E7254A1368D6
:1035C0002C490B401360FEF717FF0600214B1B68C8
:1035D0009B0598D5FEF710FF801B0228F6D9032023
:1035E0004EE11C4A136D01218B431365FEF704FF66
:1035F0000600184B1B6D9B0706D5FEF7FDFE801BD2
:103600000228F6D903203BE123685B0700D48EE053
:10361000104B9B6BDB001BD40E4A916B80235B0528
:103620000B4393630126144B1B68DB0528D5A36865
:1036300080225200934237D0002B4DD1054B1A6D9A
:103640000C490A401A651A6D0C490A401A6531E0A6
:103650000026E8E700100240FFFFFEFFFFFFFBFF30
:10366000FFE0FFFFF44E0108540100200400002099
:10367000FF1FFFFFFFFEFFFF00700040FFFBFFFF8B
:10368000884A116880235B000B431360FEF7B4FE89
:103690000700844B1B68DB05C9D4FEF7ADFEC01BD9
:1036A0006428F6D90320EBE07F4A116D80235B008C
:1036B0000B431365A368002B28D0FEF79DFE07007F
:1036C000794B1B6D9B0530D4FEF796FEC01B774BE4
:1036D0009842F5D90320D3E0A022D200934209D02A
:1036E000714B1A6D72490A401A651A6D71490A4088
:1036F0001A65DFE76C4B196D013AFF3A0A431A6508
:10370000196D802252000A431A65D3E7FEF774FE52
:103710000700654B1B6D9B0507D5FEF76DFEC01BB3
:10372000624B9842F5D90320AAE0012E21D02368EC
:103730009B063CD5A369002B21D05B4B99680120E7
:10374000014399605A6B02435A635B4A116A8023B2
:103750009B010B431362FEF74FFE0600524B9B6822
:103760009B0724D4FEF748FE801B0228F6D90320CD
:1037700086E04D4A936B51490B409363D7E74A4A21
:10378000936801218B4393604B4A136A4C490B4069
:103790001362FEF731FE0600434B9B689B0706D57C
:1037A000FEF72AFE801B0228F6D9032068E0A36AF0
:1037B000002B00D16CE00C2D49D0022B12D03A4ADC
:1037C000136840490B401360FEF716FE0400364BA9
:1037D0001B689B0139D5FEF70FFE001B0228F6D9A6
:1037E00003204DE0304A136836490B401360FEF762
:1037F00003FE05002C4B1B689B0106D5FEF7FCFD64
:10380000401B0228F6D903203AE02749CB682E4A0C
:103810001340E26A206B0243606B02431343CB60A8
:103820000A6880235B0413430B60FEF7E5FD040088
:103830001D4B1B689B0106D4FEF7DEFD001B022812
:10384000F6D903201CE000201AE0002018E0012B2C
:1038500020D0154BDA6880235B021340E16A8B426B
:103860001AD1F0239B031340216B8B4216D1C02346
:103870001B041A40636B9A4212D1002000E0012021
:1038800003B0F0BD0120FBE70120F9E70120F7E7D5
:103890000020F5E70120F3E70120F1E70120EFE741
:1038A0000120EDE700700040001002408813000086
:1038B000FFFEFFFFFFFBFFFF00000140FFFFFFEFE8
:1038C000FFDFFFFFFFFFFFFEFFFF02FF70B50500F8
:1038D0000C00002800D1D1E06A4B1A680123134084
:1038E0008B4219D32B689B0706D5674AD368F02112
:1038F0008B43A9680B43D3602B68DB077BD56B68D0
:10390000022B20D0032B40D0012B44D05E4A1268FA
:1039100092051DD4012099E05A4A136801218B4376
:1039200023431360FEF768FD0600564B1A68012317
:103930001340A342D6D0FEF75FFD801B534A90424E
:10394000F3D9032082E0504A1268920300D497E032
:103950004D49CA68032082431343CB60FEF74CFDF8
:1039600006006B68022B1CD0032B28D0012B34D00F
:10397000454BDB680C221A423DD0FEF73DFD801B13
:10398000424B9842F4D9032060E03F4A126892010A
:10399000DED401205AE03C4A12685207D8D40120F4
:1039A00054E0394BDA680C231340082B23D0FEF780
:1039B00023FD801B354A9042F3D9032046E0324B69
:1039C000DA680C2313400C2B15D0FEF715FD801B75
:1039D0002E4B9842F3D9032038E02B4BDA680C23A6
:1039E0001340042B07D0FEF707FD801B274B98429E
:1039F000F3D903202AE0234B1A6801231340A34282
:103A000025D82B685B0706D51F4AD36820490B4091
:103A1000E9680B43D3602B681B0707D51A49CB68AD
:103A20001C4A13402A69D2001343CB60FFF72AFCDB
:103A3000154BDA6812090F231340174AD35CD8409C
:103A4000164B1860164B1868FEF790FC70BD0D4AB7
:103A5000136801218B4323431360FEF7CDFC06005E
:103A6000084B1A6801231340A342CAD0FEF7C4FCD6
:103A7000801B064B9842F3D90320E7E70120E5E7D6
:103A80000120E3E7002002400010024088130000FC
:103A9000FFF8FFFFFFC7FFFFF44E010854010020AD
:103AA00004000020014B18687047C04654010020F4
:103AB00010B5FFF7F7FF044BDA68120A072313402B
:103AC000024AD35CD84010BD00100240044F0108E8
:103AD00010B5FFF7E7FF044BDA68D20A072313405B
:103AE000024AD35CD84010BD00100240044F0108C8
:103AF00070B5040082231B0102681A425CD0764B29
:103B00009B6BDB0000D59FE0734A916B80235B05C4
:103B10000B4393630125714B1B68DB0500D495E0D3
:103B20006D4B1A68C0239B031A4061680B40934297
:103B300000D1A0E0C0239B020A001A409A4200D1A3
:103B4000A1E0654B1A6DC0239B02100018401A4279
:103B50001FD01940814202D023689B0608D4C0239D
:103B60009B02A2681340834213D023681B0510D523
:103B7000594B186D5A4A02401E6D8021090331438A
:103B80001965196D574E314019651A65C30500D581
:103B900080E06368C022920219001140914200D176
:103BA00088E04D490B6DC0229202606802401343C9
:103BB0000B65012D00D187E02368DB0706D5464A57
:103BC000D36C03218B43E1680B43D36423689B07C9
:103BD00006D5414AD36C0C218B4321690B43D36436
:103BE00023685B0706D53C4AD36C3F490B406169AB
:103BF0000B43D36423681B0706D5374AD36C3B4974
:103C00000B40A1690B43D3642368DB0506D5324A18
:103C1000D36C33490B40E1690B43D36423685B06E3
:103C200006D52D4AD36C32490B40616A0B43D364ED
:103C300023681B064ED5284AD36C2E490B40216AB7
:103C40000B43D364002046E0002564E7234A116853
:103C500080235B000B431360FEF7CEFB06001F4B77
:103C60001B68DB0500D55BE7FEF7C6FB801B6428FD
:103C7000F5D903202FE0C0239B03A06803409342A3
:103C800000D057E75DE7144B1B689B0300D458E74F
:103C9000012020E0FEF7B0FB06000F4B1B6D9B05DB
:103CA00000D576E7FEF7A8FB801B134B9842F4D9AA
:103CB000032010E008490A6810480240C020800331
:103CC000034013430B606CE70A008B6B0C490B40FD
:103CD000936371E7002070BD001002400070004047
:103CE000FFFFFCFFFFFFF7FFFFF3FFFFFFCFFFFF2B
:103CF000FFFFFFFBFFFFF3FF88130000FFFFCFFF75
:103D0000FFFFFFEF70B504002023C35C012B60D0E0
:103D100020230122C25401330132C2540368C83245
:103D20005A620368773A5A6280235B00994222D034
:103D30000268936828490B4093600268936827499A
:103D40000B409360FEF758FB05002368DB689B0778
:103D500034D4FEF751FB401BFA2292009042F4D972
:103D60002368FF225A622123FC3AE254013B0022DD
:103D7000E25403202CE00268936819490B409360D9
:103D80000268936817490B409360FEF735FB050006
:103D90002368DB68DB0711D4FEF72EFB401BFA23F8
:103DA0009B009842F4D92368FF225A622123FC3AEF
:103DB000E254013B0022E254032009E02368FF2281
:103DC0005A622123FE3AE254013B0022E2540020D1
:103DD00070BD0220FCE7C046FFFDFFFFFFDFFFFFD5
:103DE000FFFEFFFFFFEFFFFF10B5040003689A68B6
:103DF000D20402D5DB68DB050ED423689A689204EE
:103E000002D5DB689B0511D40E4B802292025A61C9
:103E100021230122E25410BD05F0FEFF2168CA688B
:103E2000FF231A40084B1343CB60E6E7200006F05F
:103E300009F82168CA68FF231A40044B1343CB607A
:103E4000E2E7C046000401407FFEFFFF7FFDFFFF69
:103E500070B504000268D368A0218B43D360FEF7DD
:103E6000CBFA05002368DB689B0608D4FEF7C4FA8A
:103E7000401BFA239B009842F4D9032000E0002065
:103E800070BD70B504000368DA68520601D50020E1
:103E900070BD01225242DA60FEF7AEFA05002368D7
:103EA000DB685B0608D4FEF7A7FA401BFA229200F3
:103EB0009042F4D90320EBE70020E9E770B5041E37
:103EC00063D02123C35C002B41D021230222E25482
:103ED0002368C8325A622368773A5A622000FFF793
:103EE000D0FF051E39D12268936829490B409360A1
:103EF00021688A68636820690343A0690343134308
:103F00008B602368E2681A6121680B69A268120459
:103F100013430B612268D36880218B43D3602268EE
:103F2000D36C7D398B43D3642168CB6CE2696069C3
:103F300002431343CB6423689B689B0615D5236813
:103F4000FF225A622123FE3AE254280070BD20333A
:103F50000022C25406F0B2FBB7E72368FF225A6280
:103F60002123FB3AE2540125EFE72000FFF770FF21
:103F70000028E4D02368FF225A622123FB3AE2544E
:103F8000013B0022E2540125DFE70125DDE7C046C1
:103F9000BFFF8FFF0023092803D901330A38C0B2BD
:103FA000F9E71B01DBB2184370470000F8B50400C5
:103FB0000E002023C35C012B00D178E020230121D7
:103FC000C15401330131C154002A44D103689B68B4
:103FD0005B0601D40023F3703078FFF7DBFF0504A4
:103FE0007078FFF7D7FF00020543B078FFF7D2FFE4
:103FF0000543F078000405432368CA225A62236807
:10400000773A5A622000FFF73CFF071E34D123683D
:10401000284805401D602268936827490B4093603B
:1040200021688B68F2683069024313438B60226811
:10403000D36880218B43D36023689B689B0626D579
:104040002368FF225A622123FE3AE254013B0022F8
:10405000E2543800F8BD03689B685B0601D4002376
:10406000F37035782D04707800020543B07805436D
:10407000F07800040543BFE72368FF225A6221233A
:10408000FB3AE254013B0022E2540127E1E7200021
:10409000FFF7DEFE0028D3D02368FF225A622123D7
:1040A000FB3AE254013B0022E2540127D1E7022708
:1040B000CFE7C0467F7F7F00FFFFFBFF70B50400A6
:1040C0000E002023C35C012B69D020230121C154A1
:1040D00001330131C154002A06D17378D90603D5C2
:1040E00010218B430A337370002A32D1F078FFF726
:1040F00051FF05047078FFF74DFF00020543B078CB
:10410000FFF748FF05433078400305432368CA2280
:104110005A622368773A5A622000FFF7B2FE061E01
:1041200022D123681F4805405D602268D368802142
:104130008B43D36023689B689B0620D52368FF22AE
:104140005A622123FE3AE254013B0022E25430003D
:1041500070BDF5782D04707800020543B0780543F2
:10416000307840030543D1E72368FF225A622123B8
:10417000FB3AE254013B0022E2540126E7E720002B
:10418000FFF766FE0028D9D02368FF225A62212358
:10419000FB3AE254013B0022E2540126D7E7022613
:1041A000D5E7C0463FFFFF00F8B504000D0020230F
:1041B000C35C012B00D1CBE020230121C15401338A
:1041C0000131C154002A52D103689B685B0601D4B7
:1041D0000023EB70EE692878FFF7DCFE07046878AF
:1041E000FFF7D8FE00020743A878FFF7D3FE074386
:1041F000E878000407432023E85CFFF7CBFE0006C5
:1042000007433E436B691E436F68AB691F432368D6
:10421000CA225A622368773A5A626A6A80235B002C
:104220009A423DD0226893684A490B4093602168C6
:10423000CA68FF231A40484B1343CB60FEF7DCF8F3
:1042400005002368DA6892075FD4FEF7D5F8401BB3
:10425000FA239B009842F4D92368FF225A62212353
:10426000FC3AE254013B0022E25403206FE0036871
:104270009B685B0601D40023EB702E7836046B78C4
:104280001B021E43AB781E43EB781B041E43202306
:10429000EB5C1B061E43EB691E436B691E43B3E7D1
:1042A000226893682D490B4093602168CA68FF23F8
:1042B0001A402B4B1343CB60FEF79EF80500236892
:1042C000DA68D20711D4FEF797F8401BFA239B0057
:1042D0009842F4D92368FF225A622123FC3AE2541F
:1042E000013B0022E254032031E0DE6123685F6479
:1042F0002268916880235B000B4393602268916879
:1043000080235B010B4393600EE01E6223689F6471
:104310002268916880239B000B4393602268916818
:1043200080239B010B4393600E4B196880229202FD
:104330001143196099680A439A602368FF225A6200
:104340002123FE3AE254013B0022E2540020F8BD52
:104350000220FCE7FFFDFFFF7FFDFFFFFFFEFFFFE9
:104360007FFEFFFF00040140F8B504000E001500B9
:104370002023C35C012B00D177E020230122C2540B
:1043800001330132C2540368C8325A620368773A73
:104390005A6203689B685B0518D5FEF72DF8070085
:1043A0002368DB685B0711D5FEF726F8C01BFA23EC
:1043B0009B009842F4D92368FF225A622123FC3AD9
:1043C000E254013B0022E25403204DE0226893684E
:1043D00027490B4093602168CA68FF231A40254B88
:1043E0001343CB60FEF708F807002368DA6852072A
:1043F00011D4FEF701F8C01BFA239B009842F4D9B0
:104400002368FF225A622123FC3AE254013B002236
:10441000E254032028E05E612268936807218B4301
:10442000936023689A6815439D60134B1968802236
:1044300052031143196099680A439A60226891688F
:104440008023DB010B439360226891688023DB00AB
:104450000B4393602368FF225A622123FE3AE25401
:10446000013B0022E2540020F8BD0220FCE7C046D8
:10447000FFFBFFFF7FFBFFFF0004014010B50400BE
:104480000368DB685B0507D4084B802252035A613E
:1044900021230122E25410BD05F01CFD2168CA68E9
:1044A000FF231A40024B1343CB60EDE700040140A9
:1044B0007FFBFFFF70B5041E5ED0436A002B07D15F
:1044C0000533FF3342689A4205D00023C36102E0FE
:1044D0000023036143610023A3625133E35C002B9B
:1044E00043D051220221A154206803684025AB43E8
:1044F000036082235B006068034084200002A5689B
:104500002840034380200001E568284003432069D8
:1045100001400B4301216069084003438020800073
:10452000A569284003433820E569284003438020DB
:10453000256A2840034380208001A56A2840256819
:1045400003432B60608B042303401020656A2840DE
:10455000256803436B602068C369084D2B40C36125
:1045600000236365A154002070BD50330022E25443
:10457000200006F08DF9B4E70120F5E7FFF7FFFF13
:1045800070470000F0B585B0040002685568936874
:104590009909012006000E40084203D1D90701D530
:1045A00069066AD4990701D529066AD459090120F8
:1045B00007000F40084203D1002E01D1D90563D571
:1045C000A90661D5002E0ED05121615C03295DD072
:1045D000616D04200143616500210091D168009163
:1045E000916800910099002F0CD0616D012001436A
:1045F0006165002102919168029111683F30814309
:104600001160029ADB0509D5636D082213436365C7
:104610000023039323689B680393039B636D002B24
:1046200032D022685368E0218B435360512301222A
:10463000E254AB0732D022685368DD398B435360B4
:10464000E36C002B0AD0174A9A63E06CFEF7CDFBAF
:10465000002803D0636D402213436365A36C002BD5
:1046600012D0104A9A63A06CFEF7BFFB00280BD053
:10467000636D40221343636506E0236C2000984776
:1046800002E0636C2000984705B0F0BD0023019361
:10469000D368019393680193019BF5E72000FFF72E
:1046A0006FFFF1E7A946000810B5806A0023C387B1
:1046B000C386FFF765FF10BD03688022D2059042D4
:1046C00008D0154A904205D0144A904202D0144AAC
:1046D000904203D1702293434A6813438022D2054B
:1046E000904208D00C4A904205D00C4A904202D029
:1046F0000B4A904203D10B4A1340CA6813438022ED
:1047000093430A69134303608B68C3620B68836237
:10471000012343617047C046000400400008014087
:1047200000140140FFFCFFFF30B5036A01229343F0
:104730000362036A446882697325AA430D682A43A9
:104740000225AB438D682B43446082614A68426313
:10475000036230BD30B5036A102293430362036ADB
:1047600045688269084C14400A68120222432024DA
:10477000A3431C008B681B012343456082614A6888
:104780008263036230BDC046FF8CFFFF30B5036A11
:104790000A4A13400362036A4568C2697324A2434C
:1047A0000C682243064C1C408B681B022343456067
:1047B000C2614A68C263036230BDC046FFFEFFFFAC
:1047C000FFFDFFFF30B5036A0A4A13400362036A24
:1047D0004568C269084C14400A6812022243074C1B
:1047E0001C408B681B0323434560C2614A68026416
:1047F000036230BDFFEFFFFFFF8CFFFFFFDFFFFF16
:1048000010B51F23194001248C40036AA34303629F
:10481000036A8A401343036210BD70B5041E1ED0A4
:104820003923C35C002B14D03925022363552100A2
:1048300001C9FFF741FF01233E22A354043AA354C8
:104840000132A3540132A3540132A3546355002012
:1048500070BD38330022C25406F074FAE4E7012038
:10486000F6E700003923C35C012B26D1383302223E
:10487000C2540268D36801210B43D36003688022CD
:10488000D20593420ED00F4A93420BD00E4A934268
:1048900008D00E4A934205D01A6801210A431A60D3
:1048A00000200BE0996807220A40062A07D01A6800
:1048B00001210A431A60002000E001207047002017
:1048C000FCE7C0460004004000080140001401401D
:1048D00070B5041E1ED03923C35C002B14D03925BB
:1048E00002236355210001C9FFF7E6FE01233E22A2
:1048F000A354043AA3540132A3540132A354013205
:10490000A3546355002070BD38330022C25406F012
:1049100001FAE4E70120F6E710B50400002924D1EC
:104920003A23C35C013B5A1E9341DBB2002B50D1AA
:10493000002933D13A330222E25401222068FFF7E2
:104940005FFF23688022D205934237D0234A9342E7
:1049500034D0234A934231D0224A93422ED01A684F
:1049600001210A431A60002034E0042908D00829F4
:104970000DD03D23C35C013B5A1E9341DBB2D5E70A
:104980003B23C35C013B5A1E9341DBB2CEE73C2381
:10499000C35C013B5A1E9341DBB2C7E7042905D033
:1049A000082907D03D230222E254C6E73B23022216
:1049B000E254C2E73C230222E254BEE79968072290
:1049C0000A40062A07D01A6801210A431A6000200B
:1049D00000E0012010BD0020FCE7C04600040040BC
:1049E000000801400014014070B504000D000022D1
:1049F0000068FFF705FF2368196A0F4A114203D1C7
:104A00001A6801218A431A60002D04D13A23012239
:104A1000E254002070BD042D05D0082D07D03D23A1
:104A20000122E254F5E73B230122E254F1E73C2363
:104A30000122E254EDE7C0461111000070B50400F8
:104A40000D003823C35C012B00D16AE0382301211B
:104A5000C154082A50D01CD8002A38D0042A16D1B4
:104A600029000068FFF776FE2268916980231B0108
:104A70000B439361226893692B490B409361216832
:104A80008B69EA68120213438B6100201BE0080067
:104A900019E00C2A16D129000068FFF793FE22685E
:104AA000D16980231B010B43D3612268D3691E495E
:104AB0000B40D3612168CB69EA6812021343CB61D2
:104AC000002000E0012038230022E25470BD2900BC
:104AD0000068FFF729FE2268936908210B43936160
:104AE0002268936904398B43936122689369E9686A
:104AF0000B4393610020E6E729000068FFF746FEBC
:104B00002268D36908210B43D3612268D369043931
:104B10008B43D3612268D369E9680B43D3610020DA
:104B2000D1E70220D2E7C046FFFBFFFF7047704786
:104B30007047704710B5040003681A6992070FD5D3
:104B4000DA6892070CD5032252421A6101230376D8
:104B500003689B699B0755D0FFF7E9FF0023237685
:104B600023681A69520712D5DA6852070FD5052251
:104B700052421A610223237623689A69C0239B005C
:104B80001A4245D02000FFF7D2FF00232376236886
:104B90001A69120710D5DA6812070DD50922524298
:104BA0001A61042323762368DB699B0737D0200032
:104BB000FFF7BDFF0023237623681A69D20612D5BA
:104BC000DA68D2060FD5112252421A6108232376E1
:104BD0002368DA69C0239B001A4227D02000FFF720
:104BE000A6FF0023237623681A69D20702D5DA6864
:104BF000D20722D423681A69520602D5DA6852060F
:104C000022D410BDFFF792FF2000FFF791FFA5E728
:104C10002000FFF78BFF2000FFF78AFFB5E7200099
:104C2000FFF784FF2000FFF783FFC3E72000FFF7B3
:104C30007DFF2000FFF77CFFD3E7022252421A617A
:104C4000200004F073FCD5E7412252421A61200093
:104C5000FFF76FFFD5E7000030B53823C35C012BA9
:104C600028D038230122C25401330132C2540368D0
:104C70005A689C687025AA430D682A435A600368E5
:104C80008022D205934208D00B4A934205D00B4AAA
:104C9000934202D00A4A934204D1802294434A6844
:104CA00014439C6039230122C254013B0022C254A8
:104CB000002030BD0220FCE7000400400008014055
:104CC0000014014030B5EFF31084012282F3108804
:104CD00001680B68114D2B400B6084F31088EFF3D3
:104CE000108482F3108801688B6893438B6084F38F
:104CF0001088036E012B05D02023C36700230366B1
:104D0000436630BDEFF3108183F3108802681368A7
:104D10001024A343136081F31088EDE7DFFEFFFF4B
:104D200070B5041E18D0242383670268136801211C
:104D30008B431360036800251D6003685D60036892
:104D40009D6006F049F98023E550A567E567256673
:104D50000C3BE554002070BD0120FCE7704710B506
:104D6000EFF31081012383F3108802681368402455
:104D7000A343136081F31088202383670023836695
:104D8000FFF7ECFF10BD704710B5806A00235A2270
:104D90008352083A8352FFF7F6FF10BD70470000B8
:104DA00070B504000268D36910689568AB491E00AD
:104DB0000E400B4203D1990601D581061DD4002E69
:104DC00007D001210E002E4029421CD1A4490842DF
:104DD00019D1216E012900D198E0D90202D56902CA
:104DE00000D528E11A0602D5020600D52AE15B06A5
:104DF00002D5430600D52CE170BD636E002BFBD0BD
:104E000020009847F8E7D90707D5C10505D5012542
:104E10001562802162582A4362509A0709D5002EF4
:104E200007D02268022111627E31625804252A438C
:104E300062505A0709D5002E07D02268042111625A
:104E40007C31625802252A4362501A070AD582062D
:104E500001D4002E06D022680825156280216258F0
:104E60002A4362501A050AD5420108D522688021DA
:104E7000090111628021625820252A436250802254
:104E8000A258002AB8D09B0606D5830604D5636EC7
:104E9000002B01D0200098478023E25823689B68AC
:104EA0005B0602D42823134229D02000FFF70AFF13
:104EB00023689B685B061ED5EFF31081012383F303
:104EC00010882268936840208343936081F31088A0
:104ED000236F002B0BD0634A9A63206FFDF785FF89
:104EE000002800D188E7206F836B984784E7200073
:104EF000FFF749FF80E72000FFF745FF7CE7200030
:104F0000FFF741FF80230022E25075E7D90600D465
:104F100063E7C10600D460E71023136223689B682F
:104F20005B0650D5226F13685B689BB2002B00D1E3
:104F300062E75821615A994200D85DE75A216352CD
:104F400013681B689B0609D55823E15A0233E35ABC
:104F5000C91A89B22000FFF721FF4DE7EFF3108057
:104F6000012383F3108821680A683F4D2A400A60B4
:104F700080F31088EFF3108083F3108821688A682B
:104F80009A438A6080F31088EFF3108083F31088CF
:104F900021688A684235FF35AA438A6080F3108809
:104FA0002022E26700222266EFF3108183F310884B
:104FB0002268136810208343136081F31088206FE8
:104FC000FDF7EFFEC0E75823E15A0233E25A891A8F
:104FD00089B2E35A9BB2002B00D10DE7002900D122
:104FE0000AE7EFF31085012383F310882068026835
:104FF0001E4E3240026085F31088EFF3108583F374
:105000001088206882689A43826085F31088202285
:10501000E267002222666266EFF3108083F3108855
:10502000226813681025AB43136080F310882000BA
:10503000FFF7B4FEE0E680235B031362200000F07C
:10504000A1FCD9E6A36E002B00D1D5E6200098473D
:10505000D2E62000FFF783FECEE6C0460F08000030
:1050600020010004894D0008FFFEFFFFDFFEFFFF67
:1050700070B55C23C35AC26F222A05D002689369B7
:1050800008210B43936170BD0268526ADBB2134082
:10509000426D1370436D013343655A22835A013BBD
:1050A0009BB28352835A9BB2002BECD1EFF3108456
:1050B000593A82F3108801680B68184D2B400B6039
:1050C00084F31088EFF3108482F3108801688B68F2
:1050D00093438B6084F310882023C36700234366C7
:1050E000036E012B17D100230366EFF31084013305
:1050F00083F3108801680B680F3293430B6084F3CD
:1051000010880368D9690A4200D01A625823C15A2C
:10511000FFF744FEB7E704F04FF8B4E7DFFEFFFF08
:1051200070B55C23C25AC36F222B05D00268936905
:1051300008210B43936170BD03685B6A1340426DA5
:105140001380436D023343655A22835A013B9BB25D
:105150008352835A9BB2002BEDD1EFF31084593A5E
:1051600082F3108801680B68184D2B400B6084F3A4
:105170001088EFF3108482F3108801688B689343E2
:105180008B6084F310882023C36700234366036E7B
:10519000012B17D100230366EFF31084013383F34F
:1051A000108801680B680F3293430B6084F31088FA
:1051B0000368D9690A4200D01A625823C15AFFF71E
:1051C000EDFDB8E703F0F8FFB5E7C046DFFEFFFFEF
:1051D000D0B5040001688368026913434269134330
:1051E000C26913430A689B48024013430B6022685C
:1051F000536899490B40E1680B435360A1692268E9
:10520000964B9A4201D0236A19439368944803400D
:105210000B4393602268934B9A420DD0924B9A4273
:105220002AD0924B9A425ED0914B9A425DD08B4BE2
:105230009A4232D010230BE08E4BD96C03230B40E3
:10524000022B42D014D8002B41D0012B41D1033383
:1052500082498A4253D0E06980221202904200D1F2
:105260008AE0082B00D9EEE09B00834AD3589F4682
:10527000032B30D10533EBE77E4BD96C0C230B406D
:10528000082B2AD005D8002B29D0042BE0D01023DE
:10529000DEE70C2B25D1043BDAE7764BDB6CC02133
:1052A00009010B40802109018B4220D007D8002B37
:1052B0001FD08021C9008B421DD10423C8E7C02123
:1052C00009018B4219D10823C2E70223C0E7012359
:1052D000BEE71023BCE71023BAE70223B8E7002398
:1052E000B6E71023B4E70023B2E70023B0E70223B8
:1052F000AEE70023ACE71023AAE71023A8E7042BAE
:1053000035D00BD8002B2CD0022B05D1594B1B6864
:10531000DB062FD4594805E0012073E0082B1ED18D
:1053200080200002626853009B18834200D97EE00F
:105330001303834200D27CE0070E060250080021CE
:10534000801979410023FBF79DF84D4BC2184D4B56
:105350009A4200D96FE02368D860002052E0012013
:1053600050E0FEF7A5FB0028DCD100204AE0FDF765
:1053700089FFF8E74448D5E7082B5ED89B00434AED
:10538000D3589F46FEF794FB002858D0400063682E
:105390005B08C0186168FAF7C1FE83B20004000C14
:1053A000010010393A4A91424BD80F2293431A0018
:1053B00040080723184010432368D860002021E0EC
:1053C000FEF786FBE0E72B4B1B68DB0604D42B487B
:1053D000DCE7FDF757FFD7E72B48D7E7FEF768FB79
:1053E000002832D063685B0818186168FAF796FEE7
:1053F0000004000C0200103A254B9A4227D823687B
:10540000D860002000236366A366D0BDFEF760FB72
:10541000E6E7184B1B68DB0607D41848E2E7FDF700
:1054200031FFDDE780200002DCE71748DAE70120E2
:10543000E8E70120E6E70120E4E70120E2E70020B9
:10544000E0E70120DEE70120DCE70020DAE70120C9
:10545000D8E7C046F369FFEFFFCFFFFF00480040E9
:10546000FFF4FFFF0038014000440040004C0040C2
:105470000050004000100240A0C800080024F400C2
:1054800000FDFFFFFFFC0F0000093D00C4C800083D
:10549000EFFF0000436ADB0706D5026853682C491A
:1054A0000B40816A0B435360436A9B0706D5026831
:1054B000536828490B40C16A0B435360436A5B073A
:1054C00006D50268536824490B40016B0B435360B7
:1054D000436A1B0706D50268536820490B40416B9D
:1054E0000B435360436ADB0606D5026893681C4988
:1054F0000B40816B0B439360436A9B0606D50268A1
:10550000936818490B40C16B0B439360436A5B0679
:105510000BD50268536814490B40016C0B43536070
:1055200080235B03026C9A420AD0436A1B0606D5AD
:10553000026853680D490B40816C0B435360704700
:10554000026853680A490B40416C0B435360ECE717
:10555000FFFFFDFFFFFFFEFFFFFFFBFFFF7FFFFFE2
:10556000FFEFFFFFFFDFFFFFFFFFEFFFFFFFF7FF93
:10557000FFFF9FFFF8B5CE46474680B506000D00F9
:1055800017009946089B98463368DC692C40641BD9
:1055900063425C41BC4253D143460133F4D0FCF733
:1055A0002BFF4B46C01A40452CD84346002B29D030
:1055B00033681A685207E7D5DA691205E4D5802204
:1055C00012011A62EFF31080012282F31088316811
:1055D0000B681E4C23400B6080F31088EFF31080A3
:1055E00082F3108831688B6893438B6080F3108856
:1055F0002023B367F3677F32B35054330022F25451
:1056000003201EE0EFF31080012282F3108831683E
:105610000B680E4C23400B6080F31088EFF3108072
:1056200082F3108831688B6893438B6080F3108815
:105630002023B367F36754330022F254032000E0C1
:105640000020C0BCB946B046F8BDC0465FFEFFFFB3
:10565000F0B5C64600B582B004000D0090461E00AD
:10566000836F202B66D1002969D0002A69D080235E
:105670005B0182689A421ED07423E35C012B62D0E6
:1056800074230122E2540C330022E2505F3BA367F3
:10569000FCF7B2FE070050234246E2520233E252C8
:1056A00080235B01A2689A420CD0002398467423A1
:1056B0000022E2541DE00369002BDDD1CB07DBD5CE
:1056C000012038E02369002B02D000239846EEE742
:1056D000A8460025EBE743461B882268DB05DB0D67
:1056E000936202239C46E0445223E25A013A92B26A
:1056F000E2525223E35A9BB2002B0FD000963B009C
:10570000002280212000FFF735FF00281DD1002D49
:10571000E1D02A7823689A620135E5E700963B00DC
:10572000002240212000FFF725FF00280FD1202371
:10573000A36700E0022002B080BCB846F0BD0120A3
:10574000F9E70120F7E70220F5E70320F3E703205C
:10575000F1E7000030B583B0040080230022C2507E
:10576000FCF74AFE050023681B681B070DD423685D
:105770001B685B0716D42023A367E3670023236617
:105780007422A354002003B030BD80210C4B009341
:105790000300002289032000FFF7ECFE0028E6D07A
:1057A0000320F0E78021064B00932B000022C90361
:1057B0002000FFF7DFFE0028DDD00320E3E7C0462E
:1057C000FFFFFF0110B5041E2ED0836F002B21D0E8
:1057D0002423A3672268136801218B4313602000F0
:1057E000FFF7F6FC012814D0636A002B18D1226859
:1057F00053680E490B405360226893682A218B43FB
:1058000093602268136829390B4313602000FFF767
:10581000A1FF10BD74330022C25405F079FBD7E715
:105820002000FFF737FEE2E70120F2E7FFB7FFFFB6
:1058300010B541655823C2520233C2520023436659
:10584000836880225201934208D0002B15D103694E
:10585000002B0ED15C33FF22C25215E00369002BEE
:1058600003D15C33254AC2520EE05C23FF22C252B0
:105870000AE05C237F22C25206E080225205934256
:105880002BD05C230022C25280230022C2505E3BF8
:10589000C367EFF31084012181F3108802689368D5
:1058A0000B43936084F3108880235B0182689A42E3
:1058B0001ED0134B436674230022C254EFF31081B1
:1058C000733B83F31088026810682033FF3303436F
:1058D000136081F31088002010BD0369002B03D1F1
:1058E0005C337F22C252CFE75C233F22C252CBE718
:1058F0000369002BDDD1034B4366DCE7FF010000A9
:10590000715000082151000870B5C36F202B2FD1B2
:1059100000292FD0002A2FD080235B0184689C426D
:105920001FD07423C35C012B28D074230124C454DA
:10593000002303660368124CA3420FD05B681B026E
:105940000CD5EFF31085012383F3108804682668D3
:105950008023DB043343236085F31088FFF768FF5F
:1059600007E00369002BDCD1CB07DAD5012000E08A
:10597000022070BD0120FCE70120FAE70220F8E7D1
:10598000004800407047000010B58021A020490069
:10599000C005FDF707FC002803D1074B1B78DB0689
:1059A000F3D5054A137804218B430C318B431370D4
:1059B000024B00221A6010BD680300204402002040
:1059C00010B58021A0204900C005FDF7EBFB0028A1
:1059D00003D0074B1B78DB06F3D5054A1378042167
:1059E0008B430C318B431370024B00221A6010BDA5
:1059F000680300204402002010B50B4C002208214F
:105A00002000FDF7D6FB012220212000FDF7D1FB6D
:105A10008021A02001220902C005FDF7CAFB0A204F
:105A2000FCF7F0FC10BDC0460004005070B5050046
:105A30000C008021A02000220902C005FDF7B9FB5F
:105A40000023002B0DDD002D0DD001222021304838
:105A5000FDF7AFFB012208212D48FDF7AAFB00232B
:105A600008E00133EDE7002220212948FDF7A1FBE2
:105A7000F0E70133002BFCDD002208212448FDF76C
:105A800098FB0023002B01DD002518E00133F9E726
:105A9000012220211E48FDF78CFB1AE0012208217B
:105AA0001B48FDF786FB0023002B17DD0022082191
:105AB0001748FDF77EFB6400E4B20135EDB2072D17
:105AC0000ED863B2002BE3DB002220211048FDF743
:105AD00070FB0023002BE1DC0133FBE70133E3E73C
